{
  "_format": "hh-sol-artifact-1",
  "contractName": "Openswap",
  "sourceName": "contracts/Openswap.sol",
  "abi": [
    {
      "anonymous": false,
      "inputs": [
        {
          "indexed": true,
          "internalType": "string",
          "name": "_saleId",
          "type": "string"
        },
        {
          "indexed": false,
          "internalType": "uint256[]",
          "name": "_offeredItemsIds",
          "type": "uint256[]"
        },
        {
          "indexed": false,
          "internalType": "address[]",
          "name": "_offeredNftsContract",
          "type": "address[]"
        }
      ],
      "name": "CreateOffer",
      "type": "event"
    },
    {
      "anonymous": false,
      "inputs": [
        {
          "indexed": true,
          "internalType": "string",
          "name": "_saleId",
          "type": "string"
        },
        {
          "indexed": false,
          "internalType": "uint256",
          "name": "_saleTokenId",
          "type": "uint256"
        },
        {
          "indexed": false,
          "internalType": "address",
          "name": "_saleNftContract",
          "type": "address"
        },
        {
          "indexed": false,
          "internalType": "address",
          "name": "_offerer",
          "type": "address"
        }
      ],
      "name": "CreateSale",
      "type": "event"
    },
    {
      "inputs": [
        {
          "internalType": "string",
          "name": "",
          "type": "string"
        }
      ],
      "name": "_sales",
      "outputs": [
        {
          "internalType": "string",
          "name": "saleId",
          "type": "string"
        },
        {
          "internalType": "uint256",
          "name": "saleTokenId",
          "type": "uint256"
        },
        {
          "internalType": "address",
          "name": "saleNftContract",
          "type": "address"
        },
        {
          "internalType": "address payable",
          "name": "seller",
          "type": "address"
        },
        {
          "internalType": "address payable",
          "name": "offerer",
          "type": "address"
        },
        {
          "internalType": "bool",
          "name": "sellerStatus",
          "type": "bool"
        },
        {
          "internalType": "bool",
          "name": "offererStatus",
          "type": "bool"
        },
        {
          "internalType": "bool",
          "name": "isActive",
          "type": "bool"
        }
      ],
      "stateMutability": "view",
      "type": "function"
    },
    {
      "inputs": [
        {
          "internalType": "string",
          "name": "_saleId",
          "type": "string"
        },
        {
          "internalType": "uint256[]",
          "name": "_offeredItemsIds",
          "type": "uint256[]"
        },
        {
          "internalType": "address[]",
          "name": "_offeredNftsContract",
          "type": "address[]"
        },
        {
          "internalType": "uint256",
          "name": "sizeOfItems",
          "type": "uint256"
        }
      ],
      "name": "createOffer",
      "outputs": [],
      "stateMutability": "nonpayable",
      "type": "function"
    },
    {
      "inputs": [
        {
          "internalType": "string",
          "name": "_saleId",
          "type": "string"
        },
        {
          "internalType": "uint256",
          "name": "_saleTokenId",
          "type": "uint256"
        },
        {
          "internalType": "address",
          "name": "_saleNftContract",
          "type": "address"
        },
        {
          "internalType": "address",
          "name": "_offerer",
          "type": "address"
        }
      ],
      "name": "createSale",
      "outputs": [],
      "stateMutability": "nonpayable",
      "type": "function"
    },
    {
      "inputs": [
        {
          "internalType": "address",
          "name": "",
          "type": "address"
        },
        {
          "internalType": "address",
          "name": "",
          "type": "address"
        },
        {
          "internalType": "uint256",
          "name": "",
          "type": "uint256"
        },
        {
          "internalType": "bytes",
          "name": "",
          "type": "bytes"
        }
      ],
      "name": "onERC721Received",
      "outputs": [
        {
          "internalType": "bytes4",
          "name": "",
          "type": "bytes4"
        }
      ],
      "stateMutability": "nonpayable",
      "type": "function"
    }
  ],
  "bytecode": "0x608060405234801561000f575f80fd5b5060015f819055506116e9806100245f395ff3fe608060405234801561000f575f80fd5b506004361061004a575f3560e01c8063150b7a021461004e5780634c7bf6281461007e57806358257c3b1461009a578063dcfd972d146100b6575b5f80fd5b61006860048036038101906100639190610b3c565b6100ed565b6040516100759190610bf6565b60405180910390f35b61009860048036038101906100939190610c6c565b610100565b005b6100b460048036038101906100af9190610e70565b610535565b005b6100d060048036038101906100cb9190610fca565b6106fa565b6040516100e49897969594939291906110e3565b60405180910390f35b5f63150b7a0260e01b9050949350505050565b5f8290503373ffffffffffffffffffffffffffffffffffffffff168173ffffffffffffffffffffffffffffffffffffffff16636352211e866040518263ffffffff1660e01b81526004016101549190611166565b602060405180830381865afa15801561016f573d5f803e3d5ffd5b505050506040513d601f19601f820116820180604052508101906101939190611193565b73ffffffffffffffffffffffffffffffffffffffff16146101e9576040517f08c379a00000000000000000000000000000000000000000000000000000000081526004016101e090611208565b60405180910390fd5b8073ffffffffffffffffffffffffffffffffffffffff166342842e0e3330876040518463ffffffff1660e01b815260040161022693929190611226565b5f604051808303815f87803b15801561023d575f80fd5b505af115801561024f573d5f803e3d5ffd5b5050505060608060405180610140016040528089898080601f0160208091040260200160405190810160405280939291908181526020018383808284375f81840152601f19601f8201169050808301925050505050505081526020018781526020018673ffffffffffffffffffffffffffffffffffffffff1681526020018381526020018281526020013373ffffffffffffffffffffffffffffffffffffffff1681526020018573ffffffffffffffffffffffffffffffffffffffff1681526020016001151581526020015f15158152602001600115158152506001898960405161033b929190611289565b90815260200160405180910390205f820151815f01908161035c919061149b565b50602082015181600101556040820151816002015f6101000a81548173ffffffffffffffffffffffffffffffffffffffff021916908373ffffffffffffffffffffffffffffffffffffffff16021790555060608201518160030190805190602001906103c9929190610875565b5060808201518160040190805190602001906103e69291906108c0565b5060a0820151816005015f6101000a81548173ffffffffffffffffffffffffffffffffffffffff021916908373ffffffffffffffffffffffffffffffffffffffff16021790555060c0820151816006015f6101000a81548173ffffffffffffffffffffffffffffffffffffffff021916908373ffffffffffffffffffffffffffffffffffffffff16021790555060e08201518160060160146101000a81548160ff0219169083151502179055506101008201518160060160156101000a81548160ff0219169083151502179055506101208201518160060160166101000a81548160ff02191690831515021790555090505087876040516104e8929190611289565b60405180910390207ff0172a290545057e16875687295782cb85dc37ef012b82e5d552d6e05ce4f65d8787876040516105239392919061156a565b60405180910390a25050505050505050565b5f60018686604051610548929190611289565b908152602001604051809103902090505f5b8281101561063d578381815181106105755761057461159f565b5b602002602001015173ffffffffffffffffffffffffffffffffffffffff166323b872dd33846005015f9054906101000a900473ffffffffffffffffffffffffffffffffffffffff168885815181106105d0576105cf61159f565b5b60200260200101516040518463ffffffff1660e01b81526004016105f69392919061161e565b5f604051808303815f87803b15801561060d575f80fd5b505af115801561061f573d5f803e3d5ffd5b5050505061063760018261086090919063ffffffff16565b5061055a565b50806002015f9054906101000a900473ffffffffffffffffffffffffffffffffffffffff1673ffffffffffffffffffffffffffffffffffffffff166323b872dd30836006015f9054906101000a900473ffffffffffffffffffffffffffffffffffffffff1684600101546040518463ffffffff1660e01b81526004016106c59392919061161e565b5f604051808303815f87803b1580156106dc575f80fd5b505af11580156106ee573d5f803e3d5ffd5b50505050505050505050565b6001818051602081018201805184825260208301602085012081835280955050505050505f91509050805f018054610731906112ce565b80601f016020809104026020016040519081016040528092919081815260200182805461075d906112ce565b80156107a85780601f1061077f576101008083540402835291602001916107a8565b820191905f5260205f20905b81548152906001019060200180831161078b57829003601f168201915b505050505090806001015490806002015f9054906101000a900473ffffffffffffffffffffffffffffffffffffffff1690806005015f9054906101000a900473ffffffffffffffffffffffffffffffffffffffff1690806006015f9054906101000a900473ffffffffffffffffffffffffffffffffffffffff16908060060160149054906101000a900460ff16908060060160159054906101000a900460ff16908060060160169054906101000a900460ff16905088565b5f818361086d9190611680565b905092915050565b828054828255905f5260205f209081019282156108af579160200282015b828111156108ae578251825591602001919060010190610893565b5b5090506108bc9190610947565b5090565b828054828255905f5260205f20908101928215610936579160200282015b82811115610935578251825f6101000a81548173ffffffffffffffffffffffffffffffffffffffff021916908373ffffffffffffffffffffffffffffffffffffffff160217905550916020019190600101906108de565b5b5090506109439190610947565b5090565b5b8082111561095e575f815f905550600101610948565b5090565b5f604051905090565b5f80fd5b5f80fd5b5f73ffffffffffffffffffffffffffffffffffffffff82169050919050565b5f61099c82610973565b9050919050565b6109ac81610992565b81146109b6575f80fd5b50565b5f813590506109c7816109a3565b92915050565b5f819050919050565b6109df816109cd565b81146109e9575f80fd5b50565b5f813590506109fa816109d6565b92915050565b5f80fd5b5f80fd5b5f601f19601f8301169050919050565b7f4e487b71000000000000000000000000000000000000000000000000000000005f52604160045260245ffd5b610a4e82610a08565b810181811067ffffffffffffffff82111715610a6d57610a6c610a18565b5b80604052505050565b5f610a7f610962565b9050610a8b8282610a45565b919050565b5f67ffffffffffffffff821115610aaa57610aa9610a18565b5b610ab382610a08565b9050602081019050919050565b828183375f83830152505050565b5f610ae0610adb84610a90565b610a76565b905082815260208101848484011115610afc57610afb610a04565b5b610b07848285610ac0565b509392505050565b5f82601f830112610b2357610b22610a00565b5b8135610b33848260208601610ace565b91505092915050565b5f805f8060808587031215610b5457610b5361096b565b5b5f610b61878288016109b9565b9450506020610b72878288016109b9565b9350506040610b83878288016109ec565b925050606085013567ffffffffffffffff811115610ba457610ba361096f565b5b610bb087828801610b0f565b91505092959194509250565b5f7fffffffff0000000000000000000000000000000000000000000000000000000082169050919050565b610bf081610bbc565b82525050565b5f602082019050610c095f830184610be7565b92915050565b5f80fd5b5f80fd5b5f8083601f840112610c2c57610c2b610a00565b5b8235905067ffffffffffffffff811115610c4957610c48610c0f565b5b602083019150836001820283011115610c6557610c64610c13565b5b9250929050565b5f805f805f60808688031215610c8557610c8461096b565b5b5f86013567ffffffffffffffff811115610ca257610ca161096f565b5b610cae88828901610c17565b95509550506020610cc1888289016109ec565b9350506040610cd2888289016109b9565b9250506060610ce3888289016109b9565b9150509295509295909350565b5f67ffffffffffffffff821115610d0a57610d09610a18565b5b602082029050602081019050919050565b5f610d2d610d2884610cf0565b610a76565b90508083825260208201905060208402830185811115610d5057610d4f610c13565b5b835b81811015610d795780610d6588826109ec565b845260208401935050602081019050610d52565b5050509392505050565b5f82601f830112610d9757610d96610a00565b5b8135610da7848260208601610d1b565b91505092915050565b5f67ffffffffffffffff821115610dca57610dc9610a18565b5b602082029050602081019050919050565b5f610ded610de884610db0565b610a76565b90508083825260208201905060208402830185811115610e1057610e0f610c13565b5b835b81811015610e395780610e2588826109b9565b845260208401935050602081019050610e12565b5050509392505050565b5f82601f830112610e5757610e56610a00565b5b8135610e67848260208601610ddb565b91505092915050565b5f805f805f60808688031215610e8957610e8861096b565b5b5f86013567ffffffffffffffff811115610ea657610ea561096f565b5b610eb288828901610c17565b9550955050602086013567ffffffffffffffff811115610ed557610ed461096f565b5b610ee188828901610d83565b935050604086013567ffffffffffffffff811115610f0257610f0161096f565b5b610f0e88828901610e43565b9250506060610f1f888289016109ec565b9150509295509295909350565b5f67ffffffffffffffff821115610f4657610f45610a18565b5b610f4f82610a08565b9050602081019050919050565b5f610f6e610f6984610f2c565b610a76565b905082815260208101848484011115610f8a57610f89610a04565b5b610f95848285610ac0565b509392505050565b5f82601f830112610fb157610fb0610a00565b5b8135610fc1848260208601610f5c565b91505092915050565b5f60208284031215610fdf57610fde61096b565b5b5f82013567ffffffffffffffff811115610ffc57610ffb61096f565b5b61100884828501610f9d565b91505092915050565b5f81519050919050565b5f82825260208201905092915050565b5f5b8381101561104857808201518184015260208101905061102d565b5f8484015250505050565b5f61105d82611011565b611067818561101b565b935061107781856020860161102b565b61108081610a08565b840191505092915050565b611094816109cd565b82525050565b6110a381610992565b82525050565b5f6110b382610973565b9050919050565b6110c3816110a9565b82525050565b5f8115159050919050565b6110dd816110c9565b82525050565b5f610100820190508181035f8301526110fc818b611053565b905061110b602083018a61108b565b611118604083018961109a565b61112560608301886110ba565b61113260808301876110ba565b61113f60a08301866110d4565b61114c60c08301856110d4565b61115960e08301846110d4565b9998505050505050505050565b5f6020820190506111795f83018461108b565b92915050565b5f8151905061118d816109a3565b92915050565b5f602082840312156111a8576111a761096b565b5b5f6111b58482850161117f565b91505092915050565b7f596f7520617265206e6f7420746865206f776e657221000000000000000000005f82015250565b5f6111f260168361101b565b91506111fd826111be565b602082019050919050565b5f6020820190508181035f83015261121f816111e6565b9050919050565b5f6060820190506112395f83018661109a565b611246602083018561109a565b611253604083018461108b565b949350505050565b5f81905092915050565b5f611270838561125b565b935061127d838584610ac0565b82840190509392505050565b5f611295828486611265565b91508190509392505050565b7f4e487b71000000000000000000000000000000000000000000000000000000005f52602260045260245ffd5b5f60028204905060018216806112e557607f821691505b6020821081036112f8576112f76112a1565b5b50919050565b5f819050815f5260205f209050919050565b5f6020601f8301049050919050565b5f82821b905092915050565b5f6008830261135a7fffffffffffffffffffffffffffffffffffffffffffffffffffffffffffffffff8261131f565b611364868361131f565b95508019841693508086168417925050509392505050565b5f819050919050565b5f61139f61139a611395846109cd565b61137c565b6109cd565b9050919050565b5f819050919050565b6113b883611385565b6113cc6113c4826113a6565b84845461132b565b825550505050565b5f90565b6113e06113d4565b6113eb8184846113af565b505050565b5b8181101561140e576114035f826113d8565b6001810190506113f1565b5050565b601f82111561145357611424816112fe565b61142d84611310565b8101602085101561143c578190505b61145061144885611310565b8301826113f0565b50505b505050565b5f82821c905092915050565b5f6114735f1984600802611458565b1980831691505092915050565b5f61148b8383611464565b9150826002028217905092915050565b6114a482611011565b67ffffffffffffffff8111156114bd576114bc610a18565b5b6114c782546112ce565b6114d2828285611412565b5f60209050601f831160018114611503575f84156114f1578287015190505b6114fb8582611480565b865550611562565b601f198416611511866112fe565b5f5b8281101561153857848901518255600182019150602085019450602081019050611513565b868310156115555784890151611551601f891682611464565b8355505b6001600288020188555050505b505050505050565b5f60608201905061157d5f83018661108b565b61158a602083018561109a565b611597604083018461109a565b949350505050565b7f4e487b71000000000000000000000000000000000000000000000000000000005f52603260045260245ffd5b5f6115e66115e16115dc84610973565b61137c565b610973565b9050919050565b5f6115f7826115cc565b9050919050565b5f611608826115ed565b9050919050565b611618816115fe565b82525050565b5f6060820190506116315f83018661109a565b61163e602083018561160f565b61164b604083018461108b565b949350505050565b7f4e487b71000000000000000000000000000000000000000000000000000000005f52601160045260245ffd5b5f61168a826109cd565b9150611695836109cd565b92508282019050808211156116ad576116ac611653565b5b9291505056fea2646970667358221220bbf3b7525d07ed7e39b6001d36f99f17517209409c6650dfd893ed278c2e7d7b64736f6c63430008150033",
  "linkReferences": {},
  "deployedLinkReferences": {}
}